:020000003E2997
:10000800FF00030E8301B4000A08B5008A017008D6
:10001800A0000B1D242800303306031D15280130CD
:100028003206031D2128AB0A2B08283A031D212874
:100038000130B002031CB103AB013D3081000B114C
:100048002008F00035088A00340E8300FF0E7F0E6A
:0200580009009D
:10005A00710DF80DF90D7408F8027508031C750F77
:10006A00F902F00DF10D0F30FC00710DF80DF90DCC
:10007A007408701C4628F8027508031C750FF902EB
:10008A004B28F80775080318750FF907F00DF10DDD
:10009A00FC0B3A28701857287408F80775080318D3
:0800AA00750FF90700000800C2
:0E00B200831203132D088A002C088200080018
:1000C000831203137408003A031D6F287508003A61
:1000D000031D6F28FF30F0007F30F100C828831225
:1000E0000313FD01F901F8017108700403190034CC
:1000F00071087506FA00FA1BFD09FB01F51F85283A
:10010000F409F509F40A0319F50AF11F8C28F0091E
:10011000F109F00A0319F10A71087504FA00FA1BD3
:10012000A1282D207B18B428FD1F0034F009F10907
:10013000F00A0319F10AF809F909F80A0319F90A8A
:100140000034F51FB028F11BAC287108F9007008C5
:10015000F800F101F0019428F101F001F00A0034F7
:10016000F109F009FB0A9128F80A0319F90A740841
:100170007802031D942875087902031D9428F9015B
:10018000F801F00A0319F10AF11F94280000FF3466
:02019000080065
:1001920059208A110A128000840AAC0A0319AD0A96
:0801A200F003031DC928080049
:1001AA008312031387160A30F4000030F500300872
:1001BA00F0003108F10060207808F0007908F100B9
:1001CA007008AF007008213E8400000888000D30D6
:1001DA00FC00FB30FD00FD0BF028FC0BF0280000B2
:0801EA000000871288010800E3
:1001F2003F30831203138800071287120630FB0078
:100202001330FC00AD30FD00FD0B0529FC0B052968
:10021200FB0B052900000000071687160630FB00BD
:100222001330FC00AD30FD00FD0B1529FC0B152928
:0A023200FB0B152900000000080076
:10023C008312031307160A30F4000030F50030085F
:10024C00F0003108F10060207008AE007008213E0B
:10025C008400000888000D30FC00FB30FD00FD0B15
:10026C003529FC0B35290000000007128801080015
:10027C003F3083120313A1000630A2005B30A300B1
:10028C004F30A4006630A5006D30A6007D30A7006D
:10029C000730A8007F30A9006F30AA000730831602
:1002AC009F00880183128801FF3083168600FF307F
:1002BC008312860083160516831205168316870192
:1002CC00831287018B170B138B163D3081000B119A
:1002DC008730831681008312861C7729061D7729A7
:1002EC007B290130B2000030B30006198729003099
:1002FC003306031D832901303206031D8729B20101
:10030C00B30106189A29B00A0319B10A0330FB008D
:10031C008A30FC005530FD00FD0B9229FC0B922914
:10032C00FB0B92290000000000303106031DA029B0
:10033C0064303006031DA429B001B10180303106B0
:10034C00F00080307002031DAD2900303002031C18
:10035C00B1291E21D5208030F0008030310670028A
:10036C00031DBA293008003C031CC129B201B3019A
:0A037C00B001B101F9207129C22976
:02400E004A2F37
:00000001FF
